:100000000EC01DC01CC01BC01AC019C018C017C02C
:1000100016C015C014C013C012C011C010C01124E6
:100020001FBECFE5D2E0DEBFCDBF20E0A0E6B0E04E
:1000300001C01D92A536B207E1F715D27EC3E0CF0D
:10004000CF92DF92EF92FF92CF93DF938091610086
:10005000813031F4B19B02C0C098FCCFC09AFACF76
:10006000823009F05EC089EF90E00197F1F700C09F
:100070000000C0E0B199F7CFCF5FE9EFF0E0319732
:10008000F1F700C00000C63008F449C0C09AB19929
:10009000F1CFC0E080916200C81788F4C1110DC093
:1000A00080E090916300891778F5E9EFF0E03197EF
:1000B000F1F700C000008F5FF4CFB19B02C0C09881
:1000C00025C0D0E06D2F70E080E090E005D26B019C
:1000D0007C0180916300682F70E080E090E0FCD1AB
:1000E00026E636E646E65FE356D29B01AC01C70141
:1000F000B601ECD187FF08C089EF90E00197F1F7D6
:1001000000C00000DF5FDECFCF5FC4CFE9EFF0E0DB
:100110003197F1F700C00000B19BF8CFABCFC0988A
:10012000A9CF833009F077C089EF90E00197F1F70C
:1001300000C00000C0E0B199F7CFCF5FE9EFF0E079
:100140003197F1F700C00000C63008F462C0C09AD1
:10015000B199F1CFC0E080916200C817A8F5CC2317
:1001600011F0D0E00DC080E090916300891750F548
:10017000E9EFF0E03197F1F700C000008F5FF4CFB6
:100180006D2F70E080E090E0A7D16B017C01809141
:100190006300682F70E080E090E09ED126E636E6AE
:1001A00046E65FE3F8D19B01AC01C701B6018ED1F1
:1001B00087FF08C089EF90E00197F1F700C00000C9
:1001C000DF5FDECFCF5FC7CFB19923C0D0E06D2F07
:1001D00070E080E090E080D16B017C018091630051
:1001E000682F70E080E090E077D126E636E646E6BC
:1001F0005FE3D1D19B01AC01C701B60167D187FF95
:10020000E3CFE9EFF0E03197F1F700C00000DF5FE6
:10021000DECFC09890CFDF91CF91FF90EF90DF902D
:10022000CF90089582E3C09A91E29A95F1F7000089
:10023000C098E9EFF0E03197F1F700C0000081507D
:1002400091F70895CF93DF9310926100EBDFB19B9C
:10025000FDCFD1E010926400B19923C08091640079
:100260008F5F8093640087EA91E60197F1F700C001
:100270000000809164008F3178F3809161008430B8
:1002800010F0D093610080916100811102C0D09381
:1002900061006091610070E08CE090E040D2C0E0CD
:1002A00001C0C1E0809164008330F8F08F31C0F06C
:1002B0001092640090916400809161009817A8F4F6
:1002C000B1DF9FE9E6E8F1E09150E040F040E1F76E
:1002D00000C00000809164008F5F80936400EACFCB
:1002E000809161008F5F80936100C111B3CF9ADF6D
:1002F000B19BFDCF80916100813009F4B1C01092B3
:10030000640091E0B19920C0809164008F5F809378
:100310006400E9EFF0E03197F1F700C00000809150
:100320006400863078F3C09A809164008F5F809378
:10033000640089EF90E00197F1F700C00000B19BE5
:10034000F3CFC09890E0DECF9111D9CF1092640026
:1003500091E0B1992AC0809164008F5F809364001E
:10036000E9EFF0E03197F1F700C000008091640000
:10037000863078F3C09A809164008F5F8093640028
:1003800089EF90E00197F1F700C00000B19BF3CF37
:10039000C0986091640070E08BE090E0C0D18091E3
:1003A00064008093630090E0D4CF9111CFCF9FE39E
:1003B000EDE0F3E09150E040F040E1F700C00000D4
:1003C00031DFB19BFDCF10926200D3E01092640048
:1003D000B1991DC0809164008F5F8093640087EAAB
:1003E00091E60197F1F700C00000809164008F3121
:1003F00078F380916200811102C0D0936200609115
:10040000620070E08AE090E08AD1C0E001C0C1E003
:10041000809164008330F8F08F31C0F01092640056
:1004200090916400809162009817A8F4FBDE9FE928
:10043000E6E8F1E09150E040F040E1F700C0000054
:10044000809164008F5F80936400EACF80916200A6
:100450008F5F80936200C111B9CFE4DEB19BFDCF05
:10046000DF91CF910895B998B89AC098DBDE8FE4F8
:1004700093EC0197F1F700C00000D4DE1092600009
:10048000809160008F5F8093600087EE93E001971A
:10049000F1F700C0000080916000B19902C0883C73
:1004A00078F3883C88F48AE090E031D18093620050
:1004B0008BE090E02CD1809363008CE090E027D11A
:1004C00080936100BDDDDACFBDDED8CF40D008F427
:1004D00081E00895E89409C097FB3EF490958095DB
:1004E000709561957F4F8F4F9F4F9923A9F0F92FFA
:1004F00096E9BB279395F695879577956795B79578
:10050000F111F8CFFAF4BB0F11F460FF1BC06F5F5D
:100510007F4F8F4F9F4F16C0882311F096E911C06F
:10052000772321F09EE8872F762F05C0662371F090
:1005300096E8862F70E060E02AF09A95660F771FA4
:10054000881FDAF7880F9695879597F90895990F80
:100550000008550FAA0BE0E8FEEF16161706E8078D
:10056000F907C0F012161306E407F50798F0621BAE
:10057000730B840B950B39F40A2661F0232B242B83
:10058000252B21F408950A2609F4A140A6958FEFA2
:10059000811D811D08950AD080C071D028F076D0C9
:1005A00018F0952309F062C067C0ABC087D0A8F3EC
:1005B0009923D9F35523C9F3950F50E0551FAA2766
:1005C000EE27FF27BB2700240894679520F4E20F4D
:1005D000F31FB41F0A1E220F331F441FAA1F669564
:1005E000A9F7779530F4F30FB41F0A1E121E08F412
:1005F0006395330F441FAA1F221F769599F787959D
:1006000020F4B40F0A1E121E631F440FAA1F221FDC
:10061000331F8695A9F7862F712D602D11249F57C2
:1006200050408AF0E1F088234AF0EE0FFF1FBB1F15
:10063000661F771F881F91505040A9F79E3F5105B4
:1006400070F014C05EC05F3FECF3983EDCF386951B
:1006500077956795B795F795E7959F5FC1F7FE2B5F
:10066000880F911D9695879597F9089597F99F673B
:1006700080E870E060E008959FEF80EC089500242A
:100680000A941616170618060906089500240A94F7
:1006900012161306140605060895092E0394000C7D
:1006A00011F4882352F0BB0F40F4BF2B11F460FF0C
:1006B00004C06F5F7F4F8F4F9F4F089557FD905835
:1006C000440F551F59F05F3F71F04795880F97FB16
:1006D000991F61F09F3F79F08795089512161306D0
:1006E0001406551FF2CF4695F1DF08C016161706FF
:1006F0001806991FF1CF8695710561050894089534
:10070000E894BB2766277727CB0197F90895E199ED
:10071000FECF9FBB8EBBE09A99278DB30895262FFD
:10072000E199FECF1CBA9FBB8EBB2DBB0FB6F894D0
:0E073000E29AE19A0FBE01960895F894FFCF69
:00000001FF
