S00F0000476174696C686F2E737265634D
S11300000EC01DC01CC01BC01AC019C018C017C028
S113001016C015C014C013C012C011C010C01124E2
S11300201FBECFE5D2E0DEBFCDBF20E0A0E6B0E04A
S113003001C01D92A936B207E1F72ED368C5E0CFFF
S1130040CF92DF92EF92FF92CF93DF93809165007E
S1130050813031F4B19B02C0C098FCCFC09AFACF72
S1130060823009F0F5C0C0906000D0906100E0904B
S11300706200F090630020E030E0A901C701B601FE
S1130080A3D3882379F020E030E040E85FE3C701A0
S1130090B60135D360936000709361008093620071
S11300A09093630089EF90E00197F1F700C000009E
S11300B0C0E0B19BD8CFCF5F89EF90E00197F1F713
S11300C000C00000C63008F4C1C0C09AB19BF1CF93
S11300D0C0E080916600C81708F08EC0C11169C0E5
S11300E020E030E0A901609160007091610080918E
S11300F06200909163006CD320ED3CEC4CEC5DE32A
S113010085D49B01AC0160E070E080E89FE3F7D206
S11301106B017C0126E636E646E65FE355D387FDB0
S113012012C020E030E040E85FE3C701B6016AD4C2
S113013018164CF0C0926000D0926100E092620008
S1130140F09263000CC080E090E0A0E8BFE38093ED
S1130150600090936100A0936200B0936300D0E0CC
S11301606D2F70E080E090E09DD36B017C01809165
S11301706700682F70E080E090E094D320916000E5
S11301803091610040916200509163003FD49B0123
S1130190AC01C701B60118D387FF08C089EF90E00E
S11301A00197F1F700C00000DF5FDACFB1992EC0EC
S11301B023C0D0E06D2F70E080E090E073D36B013A
S11301C07C0180916700682F70E080E090E06AD342
S11301D026E636E646E65FE319D49B01AC01C70187
S11301E0B601F2D287FFE2CF89EF90E00197F1F7F1
S11301F000C00000DF5FDECFC09810926000109254
S11302006100109262001092630002C0CF5F61CF60
S113021089EF90E00197F1F700C0000020E030E0A2
S113022040E85FE36091600070916100809162003A
S11302309091630064D26093600070936100809336
S1130240620090936300B199E3CF33CFC09831CF6C
S1130250833009F0F9C0C0906000D0906100E09054
S11302606200F090630020E030E0A901C701B6010C
S1130270ABD2882379F020E030E040E85FE3C701A7
S1130280B6013DD260936000709361008093620078
S11302909093630089EF90E00197F1F700C00000AC
S11302A0C0E0B19BD8CFCF5F89EF90E00197F1F721
S11302B000C00000C63008F4C5C0C09AB19BF1CF9D
S11302C0C0E080916600C81708F08DC0C11166C0F7
S11302D020E030E0A901609160007091610080919C
S11302E062009091630074D220ED3CEC4CEC5DE331
S11302F08DD39B01AC0160E070E080E89FE3FFD107
S11303006B017C0126E636E646E65FE35DD287FDB7
S113031012C020E030E040E85FE3C701B60172D3C9
S113032018164CF0C0926000D0926100E092620016
S1130330F09263000CC080E090E0A0E8BFE38093FB
S1130340600090936100A0936200B0936300D0E0DA
S11303506D2F70E080E090E0A5D26B017C0180916C
S11303606700682F70E080E090E09CD220916000EC
S113037030916100409162005091630047D39B012A
S1130380AC01C701B60120D287FF2BC089EF90E0F2
S11303900197F1F700C00000DF5FDACFD0E06D2FE6
S11303A070E080E090E07ED26B017C018091670078
S11303B0682F70E080E090E075D226E636E646E6E7
S11303C05FE324D39B01AC01C701B601FDD187FFD4
S11303D008C089EF90E00197F1F700C00000DF5FEB
S11303E0DECFCF5F6ECFB19B23C0D0E06D2F70E026
S11303F080E090E057D26B017C0180916700682F08
S113040070E080E090E04ED226E636E646E65FE312
S1130410FDD29B01AC01C701B601D6D187FFE3CF62
S113042089EF90E00197F1F700C00000DF5FDECFB5
S1130430C0981092600010926100109262001092B5
S113044063002FCFC0982DCFDF91CF91FF90EF9015
S1130450DF90CF90089582E3C09A91E29A95F1F7E4
S11304600000C098E9EFF0E03197F1F700C0000018
S1130470815091F70895CF93DF9310926500EBDFDD
S1130480B199FDCFD1E010926800B19B23C0809157
S113049068008F5F8093680087EA91E60197F1F71F
S11304A000C00000809168008F3178F3809165006E
S11304B0843010F0D093650080916500811102C0F2
S11304C0D09365006091650070E08CE090E011D3FA
S11304D0C0E001C0C1E0809168008330F8F08F3142
S11304E0C0F01092680090916800809165009817A0
S11304F0A8F4B1DF9FE9E6E8F1E09150E040F04074
S1130500E1F700C00000809168008F5F809368006D
S1130510EACF809165008F5F80936500C111B3CFEE
S11305209ADFB199FDCF80916500813009F4B1C0A3
S11305301092680091E0B19B20C0809168008F5FA9
S113054080936800E9EFF0E03197F1F700C0000014
S113055080916800863078F3C09A809168008F5F3C
S11305608093680089EF90E00197F1F700C00000E4
S1130570B199F3CFC09890E0DECF9111D9CF10920A
S1130580680091E0B19B2AC0809168008F5F8093DE
S11305906800E9EFF0E03197F1F700C000008091C6
S11305A06800863078F3C09A809168008F5F8093EA
S11305B0680089EF90E00197F1F700C00000B1995D
S11305C0F3CFC0986091680070E08BE090E091D226
S11305D0809168008093670090E0D4CF9111CFCFD1
S11305E09FE3EDE0F3E09150E040F040E1F700C01C
S11305F0000031DFB199FDCF10926600D3E0109274
S11306006800B19B1DC0809168008F5F8093680073
S113061087EA91E60197F1F700C000008091680035
S11306208F3178F380916600811102C0D093660007
S11306306091660070E08AE090E05BD2C0E001C0A7
S1130640C1E0809168008330F8F08F31C0F01092DF
S1130650680090916800809166009817A8F4FBDE0A
S11306609FE9E6E8F1E09150E040F040E1F700C096
S11306700000809168008F5F80936800EACF8091CA
S113068066008F5F80936600C111B9CFE4DEB19933
S1130690FDCFDF91CF910895B998B89AC098DBDE69
S11306A08FE493EC0197F1F700C00000D4DE1092C0
S11306B06400809164008F5F8093640087EE93E010
S11306C00197F1F700C0000080916400B19B02C063
S11306D0883C78F3883C88F48AE090E002D28093E6
S11306E066008BE090E0FDD1809367008CE090E0A1
S11306F0F8D180936500A4DCDACFBDDED8CF5058A2
S1130700BB27AA270ED044C135D130F03AD120F00E
S113071031F49F3F11F41EF42AC10EF4E095E7FB77
S113072020C1E92F46D180F3BA1762077307840703
S1130730950718F071F49EF55EC10EF4E0950B2E4A
S1130740BA2FA02D0B01B90190010C01CA01A0011F
S11307501124FF27591B99F0593F50F4503E68F17A
S11307601A16F040A22F232F342F4427585FF3CFBB
S1130770469537952795A795F0405395C9F77EF48C
S11307801F16BA0B620B730B840BBAF09150A1F0D5
S1130790FF0FBB1F661F771F881FC2F70EC0BA0F5B
S11307A0621F731F841F48F4879577956795B795E3
S11307B0F7959E3F08F0B3CF9395880F08F09927DB
S11307C0EE0F979587950895A8D008F481E00895D1
S11307D00CD0DEC0D6D040F0CDD030F021F45F3F55
S11307E019F0BFC0511108C1C2C0E3D098F39923D6
S11307F0C9F35523B1F3951B550BBB27AA276217E1
S11308007307840738F09F5F5F4F220F331F441F25
S1130810AA1FA9F333D00E2E3AF0E0E830D091505D
S11308205040E695001CCAF729D0FE2F27D0660F4A
S1130830771F881FBB1F261737074807AB07B0E889
S113084009F0BB0B802DBF01FF2793585F4F2AF09F
S11308509E3F510568F085C0CFC05F3FECF3983EE2
S1130860DCF3869577956795B795F7959F5FC9F7FC
S1130870880F911D9695879597F90895E1E0660F85
S1130880771F881FBB1F621773078407BA0720F0FE
S1130890621B730B840BBA0BEE1F88F7E095089567
S11308A0E89409C097FB3EF4909580957095619506
S11308B07F4F8F4F9F4F9923A9F0F92F96E9BB27BC
S11308C09395F695879577956795B795F111F8CF38
S11308D0FAF4BB0F11F460FF1BC06F5F7F4F8F4FA3
S11308E09F4F16C0882311F096E911C0772321F099
S11308F09EE8872F762F05C0662371F096E8862F31
S113090070E060E02AF09A95660F771F881FDAF787
S1130910880F9695879597F90895990F0008550FB4
S1130920AA0BE0E8FEEF16161706E807F907C0F071
S113093012161306E407F50798F0621B730B840B79
S1130940950B39F40A2661F0232B242B252B21F453
S113095008950A2609F4A140A6958FEF811D811DF3
S1130960089597F99F6780E870E060E008959FEF2D
S113097080EC089500240A94161617061806090632
S1130980089500240A941216130614060506089501
S1130990092E0394000C11F4882352F0BB0F40F489
S11309A0BF2B11F460FF04C06F5F7F4F8F4F9F4FC9
S11309B0089557FD9058440F551F59F05F3F71F04B
S11309C04795880F97FB991F61F09F3F79F08795B2
S11309D00895121613061406551FF2CF4695F1DF3B
S11309E008C0161617061806991FF1CF86957105CB
S11309F0610508940895E894BB2766277727CB01FF
S1130A0097F908958ADF08F48FEF08950AD0C0CFCC
S1130A10B1DF28F0B6DF18F0952309F0A2CFA7CFF5
S1130A20EBCFC7DFA8F39923D9F35523C9F3950F67
S1130A3050E0551FAA27EE27FF27BB270024089460
S1130A40679520F4E20FF31FB41F0A1E220F331F11
S1130A50441FAA1F6695A9F7779530F4F30FB41FC6
S1130A600A1E121E08F46395330F441FAA1F221F87
S1130A70769599F7879520F4B40F0A1E121E631F0A
S1130A80440FAA1F221F331F8695A9F7862F712DA5
S1130A90602D11249F5750408AF0E1F088234AF0DA
S1130AA0EE0FFF1FBB1F661F771F881F915050401A
S1130AB0A9F79E3F510570F054CF9ECF5F3FECF3F2
S1130AC0983EDCF3869577956795B795F795E79506
S1130AD09F5FC1F7FE2B880F911D9695879597F917
S1130AE00895E199FECF9FBB8EBBE09A99278DB301
S1130AF00895262FE199FECF1CBA9FBB8EBB2DBB58
S1130B000FB6F894E29AE19A0FBE01960895F8940C
S1050B10FFCF11
S9030000FC
